:100000000C9424010C9441010C9441010C94410185
:100010000C9441010C9441010C9441010C94410158
:100020000C9441010C9441010C9441010C94070281
:100030000C9441010C9441010C9441010C94410138
:100040000C9441010C9441010C9441010C94410128
:100050000C9441010C9441010C9441010C94410118
:100060000C9441010C944101000000000000005F6D
:1000700000000007000700147F147F14242A7F2A41
:10008000122313086462364955225000050300000C
:10009000001C2241000041221C0014083E081408E4
:1000A000083E0808005030000008080808080060F2
:1000B00060000020100804023E5149453E00427F86
:1000C000400042615149462141454B311814127F8D
:1000D0001027454545393C4A494930017109050316
:1000E0003649494936064949291E0036360000007E
:1000F0005636000008142241001414141414004150
:100100002214080201510906324979413E7E11113B
:10011000117E7F494949363E414141227F4141227A
:100120001C7F494949417F090909013E4149497AF2
:100130007F0808087F00417F41002040413F017F48
:10014000081422417F404040407F020C027F7F0420
:1001500008107F3E4141413E7F090909063E415159
:10016000215E7F09192946464949493101017F012C
:10017000013F4040403F1F2040201F3F4038403F4C
:100180006314081463070870080761514945430068
:100190007F41410002040810200041417F00040219
:1001A0000102044040404040000102040020545439
:1001B00054787F48444438384444442038444448C0
:1001C0007F3854545418087E0901020C5252523E92
:1001D0007F0804047800447D40002040443D007FB7
:1001E0001028440000417F40007C041804787C08FB
:1001F00004047838444444387C1414140808141453
:10020000187C7C080404084854545420043F44409B
:10021000203C4040207C1C2040201C3C4030403C86
:1002200044281028440C5050503C4464544C440022
:100230000836410000007F00000041360800100829
:10024000081008000000000011241FBECFEFD8E006
:10025000DEBFCDBF11E0A0E0B1E0ECE6FEE002C001
:1002600005900D92A431B107D9F723E0A4E1B1E0E4
:1002700001C01D92AC35B207E1F70E942A040C942C
:1002800034070C940000685E41E0865D0C944203E4
:10029000CF93C0E041E060E08C2F0E94420341E038
:1002A0006FE28C2F0E944203CF5FC33599F7C0E005
:1002B00041E06C2F80E00E94420341E06C2F83E517
:1002C0000E944203CF5FC43599F7CF9108950F93F1
:1002D0001F93CF93DF938C01EB0186E090E00E94A7
:1002E0002805FC0111830083D383C2831582148205
:1002F000DF91CF911F910F910895CF93DF93EC0180
:10030000CB01BA010E94670128813981232B39F47E
:100310009B838A8399838883DF91CF910895EA81B3
:10032000FB81958384839B838A83F6CFEF92FF9230
:100330000F931F93CF93DF93EC017B018A010E94FF
:100340007D01AA81BB81E881F981EA17FB07B9F435
:1003500080910801909109018E159F0541F58091CA
:100360000601909107018017910709F582E090E05E
:10037000DF91CF911F910F91FF90EF900895208111
:1003800031818D919C9111972817390749F4228169
:10039000338112968D919C9113972817390721F07C
:1003A0000480F581E02DD1CF90E080E0E1CF81E0C5
:1003B00090E0DECF0F931F93CF93DF93EC01888102
:1003C0009981009759F0FC01048115810E94BE05B6
:1003D00019830883012B11F41B821A82DF91CF91BC
:1003E0001F910F910895CF93DF93FC01C081D181BC
:1003F000209719F4DF91CF9108956A817B818881DC
:1004000099810E9443010C80DD81C02DF1CF1F92A4
:100410000F920FB60F9211242F933F934F935F9338
:100420006F937F938F939F93AF93BF93EF93FF93BC
:100430000E9426030E94480180911A0190911B019D
:10044000892B09F044C02091020130910301809171
:10045000040190910501280F391F30930301209367
:100460000201809100019091010140911C01509185
:100470001D01840F951F9093010180930001283284
:100480003105B4F127E230E03093030120930201FB
:10049000863191059CF185E190E090930101809374
:1004A00000014091000150910101609102017091A1
:1004B000030184E191E00E949601009729F50E94D2
:1004C000260381E090E090931B0180931A01FF9135
:1004D000EF91BF91AF919F918F917F916F915F91BC
:1004E0004F913F912F910F900FBE0F901F90189535
:1004F000273D3F4F6CF627ED3FEFC6CF893E9F4F1C
:1005000084F689EE9FEFC9CF0197A9F484E191E0C9
:100510000E94DA0184E191E00E94F30160910601FA
:100520007091070180910801909109010E94430197
:100530000E941504CCCF0E94B80664E170E00E94CE
:1005400000059C0162E070E00E9400050197B1F097
:1005500030930901209308010E94B80664E170E01D
:100560000E9400059C0162E070E00E940005019776
:1005700041F03093070120930601CCCF2F5F3F4F0E
:10058000E7CF2F5F3F4FF5CF29986623A9F02B9A2D
:1005900027E030E090E0AC01022E02C0559547956F
:1005A0000A94E2F740FF0AC02C9A2D9A2D98215008
:1005B000310988F7299A08952B98EACF2C98F5CF1E
:1005C00060E00C94C402CF93DF93219A229A239A7D
:1005D000249A259A2A9A299A8FE39CE90197F1F7A0
:1005E00000C000002A989FEF2AE683E09150204047
:1005F0008040E1F700C000002A9A299881E20E9419
:10060000E00283E10E94E00286E00E94E00282ECC8
:100610000E94E00280E20E94E00289E00E94E00283
:1006200080E80E94E00280E40E94E002C8EFD1E08E
:1006300061E080E00E94C4022197D1F788E00E9427
:10064000E0028CE0DF91CF910C94E00280E80E9400
:10065000E00280E40E94E0021092560310925703D9
:10066000EEE5F1E088EF91E0DF019C011D92215061
:100670003040E1F70895811103C084E20C94E00258
:1006800080E2FCCF962F969596959695E82FF0E010
:1006900084E5989FE00DF11D1124E25AFE4F208160
:1006A000677081E090E001C0880F6A95EAF7442303
:1006B00019F0282B2083089580952823FBCF8F9253
:1006C0009F92AF92BF92DF92EF92FF920F931F9390
:1006D000CF93DF9300D000D00F92CDB7DEB7E82FD5
:1006E000F62E80320CF44DC0E05285E0E802B001F5
:1006F000112468597F4F45E050E0CE0101960E94D9
:10070000C8068E010F5F1F4F95E0F99E500111241E
:1007100087E0F89E40011124E12CEA141B040CF43C
:1007200063C0809156038F5F9F2D990F990F9F0D86
:10073000890F80935603843558F0809157031092A7
:1007400056038F5F97E0F99E800D11248093570325
:1007500080915703803320F0109256031092570374
:100760000F900F900F900F900F90DF91CF911F91EE
:100770000F91FF90EF90DF90BF90AF909F908F9080
:100780000895EE0FFF0BE25EFE4F0081118101150F
:10079000110509F0B9CF45E050E068E670E0ADCF53
:1007A000ED0D5E0D8E2D6F2D0E94F404D801A80F63
:1007B000B11D2C9130E08D2D0E94F40402C03595BE
:1007C00027958A95E2F741E020FF40E06E2F852FC4
:1007D0000E944203D394E091570350915603D814DA
:1007E0001904F4F2E39499CFD12CF5CFE82F80329D
:1007F00034F4EE0FFF0BE25EFE4F718360830895C9
:100800001F93CF93DF93162FEC018991811104C0C0
:10081000DF91CF911F910895612F0E945F03F5CF63
:1008200080935603609357030895CF93DF9380E836
:100830000E94E00280E40E94E002CEE5D1E061E0A7
:1008400089910E94C40283E0C635D807C1F7DF91C1
:10085000CF91089510921701109216011092150170
:100860001092140148E150E06BE170E084E191E006
:100870000E947D014AE150E06AE170E084E191E08C
:100880000E947D0182E090E090931901809318010D
:10089000F8941092800010928100109285001092BE
:1008A000840083E89EE19093890080938800809182
:1008B00081008860809381008091810085608093B1
:1008C000810080916F00826080936F0084B18E7789
:1008D00084B98AB18F718AB985B18E7785B98BB1A8
:1008E0008F718BB978940E94E3020E942603C2E0C4
:1008F000D0E08EEFE82EFF24FA94CC24C394D12CC0
:10090000189B0EC080911C0190911D01029641F030
:100910001092050110920401D0931D01C0931C0197
:100920004E9B0EC08091040190910501029741F009
:1009300010921D0110921C01F0920501E092040139
:100940004F9B0EC08091040190910501029641F0E9
:1009500010921D0110921C01D0930501C093040157
:100960004D9B0EC080911C0190911D01029741F09A
:100970001092050110920401F0921D01E0921C01F9
:100980001F9BBECF08E010E084E191E00E94DA01F5
:1009900001501109C9F71092170110921601109217
:1009A000150110921401D0931D01C0931C011092E7
:1009B000050110920401109203011092020110929D
:1009C00001011092000150E040E070E060E084E13D
:1009D00091E00E947D01D0921901C09218011092FD
:1009E0001B0110921A018CCF991B79E004C0991F4A
:1009F000961708F0961B881F7A95C9F78095089579
:100A000097FB072E16F4009407D077FD09D00E94BB
:100A1000140507FC05D03EF4909581959F4F0895ED
:100A2000709561957F4F0895AA1BBB1B51E107C0CC
:100A3000AA1FBB1FA617B70710F0A61BB70B881F6E
:100A4000991F5A95A9F780959095BC01CD010895FD
:100A50000F931F93CF93DF939C01029710F422E032
:100A600030E0E0915803F091590390E080E0B0E06D
:100A7000A0E0309791F4009709F445C0821B930BD6
:100A800084309105B8F58A819B816115710569F102
:100A9000FB0193838283FE0111C040815181028159
:100AA000138142175307F0F04217530799F4109738
:100AB00061F012960C93129713961C933296CF0105
:100AC000DF91CF911F910F910895009358031093D8
:100AD0005903F4CF009719F04817590718F4CA01C1
:100AE000BD01EF01DF01F801C4CF9093590380935A
:100AF0005803D1CFFE01E80FF91F219331930297DC
:100B000099838883DCCF80915A0390915B03892B72
:100B100041F480910C0190910D0190935B038093BF
:100B20005A0380910A0190910B01009741F48DB70F
:100B30009EB740910E0150910F01841B950B40917F
:100B40005A0350915B034817590708F0B8CF841B2C
:100B5000950B8217930708F4B2CFB9016E5F7F4FF0
:100B60008617970708F4ABCF640F751F70935B036C
:100B700060935A03FA0121933193A1CFCF93DF936E
:100B80009C010097E9F0FC01329713821282C09118
:100B90005803D0915903DE0190E080E02097A1F442
:100BA00080819181280F391F80915A0390915B03B6
:100BB0008217930709F067C0F0935B03E0935A0331
:100BC000DF91CF910895DA01AE17BF0708F041C059
:100BD00012964D915C911397CD014115510599F7EE
:100BE000DC011396FC93EE9312974D915D91A40F47
:100BF000B51FEA17FB0781F4208131812E5F3F4F3B
:100C0000240F351FDC0111963C932E9322813381F2
:100C100013963C932E931297B0E0A0E08A819B81BB
:100C20000097B1F5FE0181919191E80FF91F809134
:100C30005A0390915B038E179F0711F6109759F591
:100C40001092590310925803D0935B03C0935A0338
:100C5000B7CFB383A28340815181240F351FA217E0
:100C6000B30771F44E5F5F4F2D913C911197240FA4
:100C7000351F3183208312962D913C91338322833B
:100C8000009709F0ADCFF0935903E093580398CF44
:100C9000DE01EC01C3CF13961C921E921297D4CFA3
:100CA000CF92DF92EF92FF92CF93DF93CDB7DEB773
:100CB0002A970FB6F894DEBF0FBECDBF89879A87FB
:100CC000A985BA852D913D914D915C9129833A83F7
:100CD0004B835C83232B242B252B41F424E239ED19
:100CE0004BE557E029833A834B835C8369817A81A2
:100CF0008B819C812DE133EF41E050E00E94D106D1
:100D000069017A01A7EAB1E49B01AC010E94F006F7
:100D100069837A838B839C83ACEEB4EFA701960141
:100D20000E94FE069B01AC0189819A81AB81BC8146
:100D3000820F931FA41FB51FB7FF03C00197A1091E
:100D4000B048E985FA8580839183A283B3839F7736
:100D50002A960FB6F894DEBF0FBECDBFDF91CF91BC
:100D6000FF90EF90DF90CF9008950E945006089575
:100D700080E191E00E9450060895B0E0A0E08093E9
:100D8000100190931101A0931201B09313010895E3
:100D9000FB01DC0102C005900D9241505040D8F794
:100DA0000895052E97FB1EF400940E94E80657FD57
:100DB00007D00E94030707FC03D04EF40C94E8060A
:100DC00050954095309521953F4F4F4F5F4F089577
:100DD00090958095709561957F4F8F4F9F4F0895A7
:100DE0000E942507A59F900DB49F900DA49F800D94
:100DF000911D11240895B7FF0C94F0060E94F0068F
:100E0000821B930B0895A1E21A2EAA1BBB1BFD01A6
:100E10000DC0AA1FBB1FEE1FFF1FA217B307E407D9
:100E2000F50720F0A21BB30BE40BF50B661F771F31
:100E3000881F991F1A9469F7609570958095909511
:100E40009B01AC01BD01CF010895A29FB001B39FEA
:100E5000C001A39F700D811D1124911DB29F700DC3
:0C0E6000811D1124911D0895F894FFCF0E
:100E6C001400140002000C00080000005C032000B9
:040E7C000100000071
:040000030000028671
:00000001FF
